:020000040800F2
:10000000481F07202102000801C500080B4F000807
:100010004DB700085308000821E100080000000067
:1000200000000000000000000000000081D800086F
:10003000910B0008000000001FCB0008BDDA00088B
:100040003B0200083B0200083B0200083B0200089C
:100050003B0200083B0200083B0200083B0200088C
:100060003B0200083B0200083B0200083B0200087C
:100070003B0200083B0200083B0200083B0200086C
:100080003B0200083B0200083B0200083B0200085C
:100090003B0200083B0200083B0200083B0200084C
:1000A0003B0200083B0200083B0200083B0200083C
:1000B0003B02000821DB00082DDB00083B020008A2
:1000C0003B0200083B0200083B0200083B0200081C
:1000D0003B020008A9E000083B0200083B020008C0
:1000E0003B0200083B0200083B0200083B020008FC
:1000F0003B0200083B0200083B0200083B020008EC
:100100003B0200083B0200083B0200083B020008DB
:100110003B0200083B0200083B0200083B020008CB
:100120003B020008F50A00083B0200083B020008F9
:100130003B0200083B0200083B0200083B020008AB
:100140003B0200083B0200083B0200083B0200089B
:100150003B0200083B0200083B0200083B0200088B
:100160003B0200083B0200083B0200083B0200087B
:100170003B0200083B020008F509000800000000EF
:100180003B0200083B0200083B0200083B0200085B
:100190003B0200083B0200083B0200083B0200084B
:1001A0003B0200083B0200083B0200083B0200083B
:1001B0003B0200083B0200083B0200083B0200082B
:1001C0003B0200083B020008000000003B02000860
:1001D0003B0200083B0200083B0200083B0200080B
:1001E0003B0200083B0200083B0200083B020008FB
:1001F0003B0200083B020008DFF810D000F0DAFAFA
:100200000048004729180108AFF30080481F072065
:1002100030BF72B6704762B6704780F30888704787
:100220000648804706480047FEE7FEE7FEE7FEE790
:10023000FEE7FEE7FEE7FEE7FEE7FEE7C1DA0008BD
:10024000F90100082DE9F05F0546002092469B4623
:1002500088460646814640241BE0284641464746DC
:10026000224600F0F4F853465A46C01A914110D382
:1002700011461846224600F0DBF82D1A67EB0108FC
:100280004F4622460120002100F0D2F817EB00096A
:100290004E41201EA4F10104DFDC484631462A46C7
:1002A0004346BDE8F09F40EA01039B0703D009E005
:1002B00008C9121F08C0042AFAD203E011F8013B52
:1002C00000F8013B521EF9D27047D2B201E000F8AB
:1002D000012B491EFBD270470022F6E710B51346EA
:1002E0000A4604461946FFF7F0FF204610BD2DE9E7
:1002F000FE4F81EA030404F0004421F00041009421
:100300004FF0000B23F0004350EA01045ED052EAA4
:1003100003045BD0C3F30A54C1F30A552C44A4F27E
:10032000F3340194A0FB0254C1F3130141F4801192
:10033000C3F3130343F4801301FB024400FB034E99
:10034000840A970A44EA815447EA8357A4FB076862
:1003500002958D0A05FB07854FEA932C04FB0C548C
:100360002705029D4FEA065847EA1637B5EB080500
:100370006EEB070C870E920E47EA811742EA831252
:10038000A7FB0201B6EB0B0164EB00042B0D43EA63
:100390000C335E1844EB1C50DA465146E7FB020171
:1003A000C5F313044FEA0B3343EA14534FEA043204
:1003B000019C43EA0603A4F10C040294009CCDE9DD
:1003C00000B400F063F803B0BDE8F08F00200146F0
:1003D000F9E7C1F30A5210B5C1F3130140F2FF333C
:1003E00041F480119A4201DA002010BD40F23343FB
:1003F0009A42A2F2334203DC524200F028F810BDC8
:10040000904010BD30B50B4601460020202201244B
:1004100009E021FA02F59D4205D303FA02F5491BD2
:1004200004FA02F52844151EA2F10102F1DC30BDE8
:10043000202A04DB203A00FA02F1002070479140A4
:10044000C2F1200320FA03F3194390407047202A99
:1004500004DB203A21FA02F00021704721FA02F36E
:10046000D040C2F12002914008431946704710B5B0
:10047000141E73F1000408DA401C41F100019218C7
:100480005B411A4301D120F0010010BD2DE9F04D70
:1004900092469B4611B1B1FA81F202E0B0FA80F2C5
:1004A00020329046FFF7C4FF04460F4640EA0A0098
:1004B00041EA0B0153465A46084313D0114653EA0A
:1004C000010019D0C8F140025046FFF7C0FF0546B1
:1004D0000E46504659464246FFF7AAFF084305D04C
:1004E000012004E020463946BDE8F08D0020054398
:1004F00046EAE0762C4337430A986305E40AA0EB0A
:1005000008000022FD0A44EA47540A3002D50020C0
:100510000146E9E7010510196941DDE908450019BF
:100520006941BDE8F04DA2E72DE9FE4F804681EA22
:100530000300C00F0C46009021F0004123F000455D
:10054000B8EB0200A94105D24046214690461C4620
:100550000B46024623F00040104347D0270DC7F357
:100560000A00C3F30A510290401A019040286BDA46
:10057000C3F3130040F4801B0098924620B100237F
:10058000D2EB030A63EB0B0B01985946C0F1400212
:100590005046FFF74DFF06460D4650465946019A14
:1005A00000F01AF910EB08006141002487EA1152AB
:1005B00084EAE7731A4340D0009A62B3019A012A91
:1005C0004FEA075215DC001B61EB02014FF00042BD
:1005D00002EA0752CDE90042001C41F58011324683
:1005E0002B46FFF753FF03B0BDE8F08F404621468E
:1005F000F9E7001B61EB0201001C41F580130018B4
:100600005B412018A2F5001747EB030140EAD570C3
:10061000B6196D4111E06D084FEA360645EAC0751E
:100620004FEA0752001B61EB0201001C41F58011EB
:1006300049084FEA30000019514132462B4603B0B9
:10064000BDE8F04FFFF713BF0098012240000023E0
:10065000D0EB020263EBE073009821464FEAE074AE
:10066000B8EB000061EB0401E9E783F000435BE7CE
:1006700081F0004158E72DE9F04D81EA030404F0D0
:10068000004B21F0004514464FF0000A23F00041D2
:1006900050EA050220D054EA01021DD0C5F30A57E2
:1006A0000246C5F31303C1F31300C1F30A5640F425
:1006B000801543F48013A7EB0608101BD64608F2FA
:1006C000FD3873EB050002D308F1010801E0921830
:1006D0005B41B8F1000F03DA00200146BDE8F08D60
:1006E00000204FF48011064684460EE0171B73EB82
:1006F000050705D3121B63EB050306434CEA010C07
:1007000049084FEA300092185B4150EA0107EDD1E9
:1007100052EA030012D082EA040083EA050108438A
:1007200005D0101BAB4106D20122002306E00022B7
:100730004FF0004302E06FF0010253101AEB060085
:100740004CEB085110EB0A0041EB0B01BDE8F04DFA
:10075000FFF78DBEC1F30A52C1F3130140F2FF331C
:1007600041F480119A4202DA00200146704740F2BB
:1007700033439A42A2F2334202DC5242FFF767BE91
:10078000FFF756BE30B5041E71F1000404DB4FF0D4
:100790000044404264EB0101141E73F1000405DBC8
:1007A0001C464FF00043524263EB0403994208BFDA
:1007B000904230BD064C074D06E0E06840F0010372
:1007C00094E8070098471034AC42F6D3FFF718FDC1
:1007D0005887010878870108202A06DBCB17203AC2
:1007E00041FA02F043EAE07306E041FA02F3D04036
:1007F000C2F12002914008431946704770B58C1829
:1008000010F8015B15F0070301D110F8013B2A1124
:1008100006D110F8012B03E010F8016B01F8016B11
:100820005B1EF9D12B0705D40023521E0DD401F80D
:10083000013BFAE710F8013BCB1A921C03E013F8D6
:10084000015B01F8015B521EF9D5A142D8D300200B
:1008500070BDFEE770B4BFF34F8FBFF36F8F1949C0
:100860000020174E0860316841F400313160BFF359
:100870004F8FBFF36F8F14490860BFF34F8F081F6E
:10088000124943F6FF750068C0F34E3CC0F3C9043B
:1008900005EA4C12204600BF42EA80730B60401EFE
:1008A000FAD2BCF1010CF3D2BFF34F8F306840F4A1
:1008B00080303060BFF34F8FBFF36F8F70BC7047D5
:1008C00014ED00E050EF00E084ED00E060EF00E0A8
:1008D00070B514460D4606460C4800F0ADFFE10128
:1008E0000A4CDFF82CC070010023AA01C4F800C034
:1008F000E160C4E90130C4E904232046A36101F0AA
:100900001BF820680168016070BD0000D41E022041
:100910000000055010B5806B816C496D022906D02E
:10092000012180F83510C16C41F04001C16400F034
:100930008EFF10BD2DE9F84F0F462A498046164616
:10094000086840F48000086008680A15264C4FF0DB
:10095000007C00F480000090A4F15000234B00259F
:100960004FF0040989144FF0010A8464A0638800E1
:100970002360C4F804C04FF4003CC4F824908311F1
:10098000A560C4E90352C4E90AA52563C4E90510BA
:10099000C4E9073C204601F0FDF8204601F03EF98D
:1009A000134984F83450A7B13B464246204600968E
:1009B00001F09FF82068016841F0100101600022F9
:1009C0003920114601F0E2FDBDE8F84F392001F071
:1009D000D1BD01B0334642460348BDE8F04F01F0B7
:1009E000DFB9000030380240241F02202864024092
:1009F00028000550014800F049BF0000D41E022025
:100A000010B5104C20210E4A00202260C4E90101DB
:100A1000E06020616061A061204600F08DFF2068E9
:100A2000C16821F01E01C1602068C16841F0010168
:100A3000C1602068016841F48041016010BD000080
:100A400000000550D41E02202DE9F0471B4C8046C3
:100A50001D4616460F46206820F00100C4F800002D
:100A6000D4F800C01CF0010FFAD1DFF85490D9F887
:100A70000000016821F0010101604FF6FF7004F0F1
:100A800003FC2B4632463946404609F079FF294699
:100A900030460BF025FF0021084609F013FE0AF04E
:100AA000FDF9D9F80000016841F0010101602068FA
:100AB00040F001002060BDE8F08700000000055014
:100AC000241F02200021084610B509F0FBFD0AF0A2
:100AD000E5F9064806490068026842F00102026032
:100AE000086840F00100086010BD0000241F0220CB
:100AF000000005501B4810B51B4C1C4B0068DFF86C
:100B000070C01C49A04204D91B4A126802F400625A
:100B100005E098421AD9194A126802F40062002AC4
:100B200008BF10BD4FF40062A04288BF144803D82C
:100B3000984288BF134810D902600221124801F080
:100B4000A2FA12484068BDE81040004760458CBFDB
:100B50004A680A6802F40062E1E760458CBFCA6037
:100B60008A60EAE7241F022058640240B86002400D
:100B70005860024000600240046402400064024089
:100B80000C64024008640240000402403400022069
:100B900070474DF8044D0B89D1E9002C097BC468DE
:100BA0001B0442EA0C2243EA01611143C1605DF873
:100BB000044B002070474DF8044D0B89D1E9002CFF
:100BC000097B84681B0442EA0C2243EA0161114359
:100BD00081605DF8044B00207047000030B4D1E91B
:100BE000013CD1E9034543EA0C0CD1E90523016836
:100BF0002C434CEA0404DFF81CC044EA422201EA18
:100C00000C0142EA4332114341F00801016030BC5B
:100C1000002070478101F0FF70B4B3F5804F18BF1A
:100C20006FF0704105D000BF40F8221070BC00206A
:100C300070478D688C89D1E9003C2E028D6950F88F
:100C4000221046EA044443EA0C1C044B4CEA040C10
:100C500019404CEA05031943E6E700000000F0CF15
:100C60002DE9F003D1E90225D1E904634C68082A93
:100C700045EA060744EA020848EA0702D1E906C540
:100C800042EA03020B68D1E9086442EA0C02D1F897
:100C900030C0D1E90A7842EA05028D6B42EA0606C5
:100CA00050F8232046EA0406144C46EA0706D1F819
:100CB000349046EA080646EA0C0C4CEA050C02EAB7
:100CC00004024CEA090C4CEA020208BF42F040025E
:100CD00040F823200A6BB2F5801F05D10A684AB19B
:100CE000026842F4801202600A681AB10268496B15
:100CF00011430160BDE8F003002070478004C0FF8D
:100D00002DE9F001D1E901438F8900EB8202D1F88E
:100D100000C00D8A1E02154B4CEA041C0C7D46EAED
:100D200007464CEA0606D2F804C05F0103EB0558FB
:100D30008D6946EA080607EB046434432C430CF043
:100D4000404C44EA0C0CC2F804C0026812F4801F44
:100D500007D00A8A416803EB025221F47001114363
:100D60004160BDE8F0010020704700000000F0FF86
:100D700070B4D1E9006CD1E90243D1E90425012E18
:100D800043EA02064CEA040C8C69D1E907324CEACA
:100D90000606D1F824C046EA050141EA040109D05B
:100DA0000B4301681A4342EA0C026FF30E01114330
:100DB00001600CE005684468134325F4F8424CEAEE
:100DC00002021A4302606FF30E042143416070BCBB
:100DD00000207047426942EA4101416100207047AA
:100DE000F8B515460446D1E9002388686FF01F0C5A
:100DF000C9681A430CEB401040EA412010430090B0
:100E0000206101F049F90646A06910F0200F0ED0CC
:100E1000B5F1FF3F07D025B101F03EF9801BA84294
:100E200001D90320F8BDA06910F0200FF0D10020F7
:100E3000F8BD2DE9F0036FF00F058B68D1E9006C68
:100E40002C01761E27044FEA04294FEA043805EBEB
:100E50000C15B1F810C035430E7E04EB03248B8AC9
:100E60002543C96809EB0C4408EB035C012A07EB36
:100E700006630ED082683E1306EB01310D4302F08B
:100E8000704145EA040242EA0C021A4311438160B0
:100E900013E00E038168C2682543A6F5805421F44F
:100EA00070412B4321F4700144EA0C0C02F07042B3
:100EB0001A434CEA01018160C2600020BDE8F003E2
:100EC000704700002DE9F0472D4C82B04FF0000A2A
:100ED00089460DF1040806465746A07900250028EA
:100EE00015D9CDF80080C0B261884A4600FB06F0F3
:100EF0008B0800210BF044F96188BDF80400B0EBC9
:100F0000910F04D1A079691C8DB2A842E9D8A079CB
:100F1000A84203D102B00020BDE8F08730460AF0B5
:100F200059FE20B117A039460DF0CEFA1CE0B9F1F8
:100F3000FF3F19D0ADF804A0A079002814D900BF54
:100F4000A279BDF80400618806FB02008B0800222C
:100F500011460BF08FFABDF80400401C80B2ADF8CA
:100F60000400A1798142EBD8781C87B2032FB4D357
:100F70000AA031460DF0A8FA02B00120BDE8F087C2
:100F80007C0B02206572726F72206572617365203E
:100F9000626C6F636B3A25640D0A00006261642025
:100FA000626C6F636B20636865636B65643A25648C
:100FB0000D0A00002DE9FF4F404E924681B01F46BA
:100FC000B179B0FBF1F2B0FBF1F801FB120B404636
:100FD00000F0EAF871890446884203D905B001207F
:100FE000BDE8F08FB0790025002841D95D451AD3BE
:100FF000CFB171880298081AB8422CBF1FFA87F93E
:101000001FFA80F9CDF80090B0795346029A04FB9C
:10101000005108FB00500AF0D5FB00210291CA44A0
:10102000A7EB090706E0B07904FB005108FB00506C
:101030000AF0B6FCB8B14FF0AA300090B0790423A2
:1010400000216A4600FB04F00BF044FAB079042357
:1010500000216A4600FB04F0401C0BF03BFA012023
:1010600000F02EF8B3E7B179681C85B2A942BDD86B
:10107000B079A8421DD1CC216A4601238DF8001019
:1010800000FB04F019460BF025FA40460AF0A2FDD9
:1010900072890021002A88BF70690AD930F811309E
:1010A000434502D120F8114003E0491C89B28A422D
:1010B000F4D805B00020BDE8F08F00007C0B0220C2
:1010C000F8B5324C0646608988B1616910F0010FAD
:1010D0004FF6FF70A1F1020118BF21F8020F6289DB
:1010E000520804D04880521E21F8040FFAD1002083
:1010F000A08105466089002821D9A0790423002118
:101100006A4600FB05F00BF07BF89DF80000FF2815
:101110000DD10EB3A079012300216A4600FB05F032
:10112000401C0BF06DF89DF80000FF2814D018A0AB
:1011300029460DF0C9F960896D1CA842DDD882B23C
:10114000002A18BF002088BF636918D933F810102F
:101150008A4211D8E08112E09DF803209DF8020038
:10116000618900EB0220814202D9616921F81050A7
:10117000A089401CA081DEE7401C8242E6D8E089BD
:10118000642834BF02200020F8BD00007C0B022040
:1011900062616420626C6F636B20696E6465783A8B
:1011A00025640D0A000000002DE9F84F2C4F814600
:1011B0002C4E78893168401E884228BF08464DD39E
:1011C000441C4FF0000A09F001054FF0FF3B4FF0BF
:1011D0000108CDF800A012D028EA0400A8420CD1E2
:1011E000B979601E04236A4601FB00F000210BF070
:1011F00007F80098B0F1FF3F22D0641EECD15846AA
:101200007C893268611E8A421ED2316009F0010574
:10121000CDF800A0F4B100BF28EA0400A8420CD128
:10122000B979601E04236A4601FB00F000210AF030
:10123000E7FF0098B0F1FF3F05D0641EECD109E054
:10124000601E01D2DCE7601EB0F1FF3F1CBF3060C2
:10125000BDE8F88F4FF0FF30BDE8F88F3060AFE7A2
:101260007C0B02202C000220F0B54A4C002683B0F3
:101270003546A6816089002888BF4FF0AA373CD93F
:101280008DF804600123A079002101AA00FB05F07C
:101290000AF0B6FF9DF80400FF282AD1A1790123A6
:1012A00001AA01FB05F00021401C0AF0A9FF9DF8EE
:1012B0000400FF281DD128460AF08CFCB0B136A0EE
:1012C00029460DF001F901970423A079002101AA14
:1012D00000FB05F00BF0FEF8A0790423002101AA21
:1012E00000FB05F0401C0BF0F5F802E0A089401C63
:1012F000A08160896D1CA842C2D8A1892AA00DF0E6
:10130000E3F8A08964283EBF012003B0F0BDC0EB24
:1013100040112A48002501EB41010096A0FB011075
:10132000618900294FEA50172CD900BF8DF804605D
:101330000123A079002101AA00FB05F00AF060FF5B
:101340009DF80400FF2819D1A0790123002101AAEA
:1013500000FB05F0401C0AF053FF9DF80400FF2835
:101360000CD1A07902236A46194600FB05F00BF068
:10137000B1F80098401C0090B84203D060896D1C01
:10138000A842D3D80120FFF79BFE002818BF0220F7
:1013900003B0F0BD7C0B022042616420626C6F637D
:1013A0006B3A25640D0A0000676F6F645F626C6FB3
:1013B000636B6E756D3A25640D0A00001F85EB5155
:1013C00010B50AF031FC002821D1194C61690029BF
:1013D0001CBF002010F018FD60894100002010F0B3
:1013E00053FD606161894900FEF776FF606970B165
:1013F0000120FFF765FE60B10EA00DF065F8FFF764
:1014000033FF90B111A00DF05FF8022010BD012054
:1014100010BD618912A00DF057F8A18916A00DF03A
:1014200053F8E18919A00DF04FF8002010BD00001D
:101430007C0B0220666F726D6174206E616E642099
:10144000666C6173682E2E2E0D0A0000666F726D39
:101450006174206661696C6564210D0A00000000FA
:10146000746F74616C20626C6F636B206E756D3A83
:1014700025640D0A00000000676F6F6420626C6FC6
:10148000636B206E756D3A25640D0A0076616C6998
:101490006420626C6F636B206E756D3A25640D0A73
:1014A000000000002DE9FF4F5FEA0309144681B0F8
:1014B0008A464FF000057CD052480AEB050C418863
:1014C0008379B1FBF4F2C68902FB03F2BCFBF2F2B2
:1014D000964231BF4FF6FF72466906EB4202128810
:1014E0004689964203D805B00120BDE8F08FB1FBD4
:1014F000F4F6A9EB050B06FB03F0BCFBF0F600FBD2
:1015000016C000FB04F0B0FBF1FCB0FBF1F602FBEF
:10151000036701FB1C08A1EB0800B0FBF4F086B2E6
:101520005E4588BF1FFA8BF606FB04FB1FFA88F1A5
:10153000019A1FFA8BF338460AF042FC032809D1BE
:101540001FFA8BF3019A1FFA88F138460AF038FC2B
:10155000032808D0042818BF002846D005B04FF053
:101560000200BDE8F08F1FFA88F1019A5B46384609
:10157000FFF720FDDFF88C804FF0FF3198F8060070
:10158000B7FBF0F0FFF79EFC80B998F80600002149
:10159000B7FBF0F0FFF796FC834698F80600B7FB20
:1015A000F0F00AF017FBBBF1000F1ED098F8060010
:1015B00000E022E0B7FBF0F74FF0AA30009098F877
:1015C0000600042300216A4600FB07F00AF082FFB0
:1015D00098F80600042300216A4600FB07F0401C2F
:1015E0000AF078FF0120FFF76BFD0198354404FBFA
:1015F00006004D450190FFF45FAF05B00020BDE847
:10160000F08F00007C0B02202DE9FF4F85B01646BD
:101610008A464FF00008089800284FF0FF300490E9
:101620007CD94D480AEB080C41888379B1FBF6F26E
:10163000C48902FB03F2BCFBF2F2944238BF4FF6BE
:10164000FF7502D3446934F812504289AA4203D884
:1016500009B00120BDE8F08FB1FBF6F4089AA2EBC7
:101660000802039204FB03F094B2BCFBF0F200FB0F
:1016700012C000FB06FBBBFBF1F2BBFBF1F005FB6C
:10168000030001FB12B90290A1EB090080B2B0FB8C
:10169000F6F0ADF80400A04298BF044604FB06F73C
:1016A00001A800901FFA89F102984FF0FF32C7F3AA
:1016B0008F030AF065FD18B109B00220BDE8F08F74
:1016C000BDF80400B0EB970F18D1BBB2059A1FFA12
:1016D00089F102980AF014FE80B90498A8422ED02D
:1016E000CC208DF800001C4801236A4619468079F9
:1016F00000FB05F00AF0EEFE049500B316480399CE
:101700008CB28179408801FB00F0A0EB0B00B0FBAC
:10171000F6F080B2ADF80400844200E017E028BF84
:10172000044604FB06F71FFA89F1059A02983B4626
:10173000FFF740FC18B109B00320BDE8F08F059811
:10174000A0443844059008988045FFF46AAF09B07A
:101750000020BDE8F08F00007C0B022030B49446DE
:101760000D4612F0070118BF012101EBDC010478DE
:10177000421C11FB0CF0812C1378C2B228BF402B05
:101780002BD3FF2B18BFFF2C27D07F2B34BFA3F107
:101790004000A3F14100C0B2A4F18101254CC9B2BF
:1017A000BCF10C0FC1EB411303EB811100EB4100C5
:1017B00000FB02F329D0BCF1100F2DD0BCF1180FA3
:1017C00031D0BCF1200F1CBF30BC7047D4F82100D1
:1017D000C118284630BC0CF067BD002A04BF30BCDD
:1017E000704712F0010F4FF00003A5F1010018BF80
:1017F00000F8013F510804BF30BC70474370491ED8
:1018000000F8023FFAD130BC7047D4F80900C11883
:10181000284630BC0CF048BDD4F81100C118284649
:1018200030BC0CF041BDD4F81900C118284630BCBA
:101830000CF03ABD181B072010B5044600F0E1F883
:101840000020E06484F8350084F8340010BD70474F
:1018500010B50FF033FF0948012100F014FC0848CF
:10186000012308490278521C02700868C16841F0DF
:101870000101C1600448037010BD00000004024073
:1018800034000220D41E0220010002202DE9F04184
:1018900004460068274F0426056915F0040F0BD095
:1018A0004661E06C40F00200E06484F83560A06CB2
:1018B0000765A06C00F05BF915F0020F0DD02168F0
:1018C00002204861E06C40F00100E06484F835607B
:1018D000A06C0765A06C00F04AF915F0100F05D058
:1018E000216810204861204600F08AF815F0080FA2
:1018F00005D0216808204861204600F0F9F815F06D
:10190000010F08BFBDE8F0812068016811F0020FE7
:1019100003D0C16821F01E01C16020680121C268A6
:1019200022F00102C260206841612046FFF790FF6B
:10193000BDE8F08115090008002804BF01207047A8
:1019400070B5044690F83500002804BF204600F02A
:1019500059F8022084F835002068284902681140AF
:101960000160201D626990E80B101043A26943EAF0
:101970000C03034304F120000B4343EA020C0FC89D
:101980004CEA000C20684CEA010C216B4CEA020284
:10199000D0F800C01A43114341EA0C0101606068AD
:1019A00010281ED14FF47F40A17F4FF07F4C257F40
:1019B00090FAA0F20302607FB2FA82F293FAA3F3E4
:1019C0009CFAACF694F81FC09040B3FA83F32268F7
:1019D000B6FA86F699400CFA06F3284319430843F1
:1019E0009061206800220121C36843F01E03C36098
:1019F000E26484F83510104670BD000007F0E0FF87
:101A00007047704733484DF804ED87B0016841F0E6
:101A100001010160006800F0010005902E48016896
:101A200041F001010160016801F0010105910168C7
:101A300041F002010160016801F0020105910168B5
:101A400041F004010160016801F0040105910168A1
:101A500041F008010160016801F008010591016889
:101A600041F0800101600068022101224FF00D0C5D
:101A700000F080000590402003238DE80F101748E8
:101A8000694600F0CFF94FF4607000901448694641
:101A900000F0C8F94FF43C6000901248694600F02D
:101AA000C1F9082000901048694600F0BBF94FF4D6
:101AB000807000900D48694600F0B4F900224E2075
:101AC000114600F063FD4E2000F054FD07B05DF8B4
:101AD00004FB00003438024030380240000002406D
:101AE0000004024000080240000C0240001C0240BA
:101AF000704770B485684FF0000C039C802D13D0A4
:101B000090F83450012D02BF022070BC704790F84D
:101B10003560012580F83450012E18BF4FF0020CBB
:101B200008D070BC604670474FF480714FF0010CD4
:101B30004165F6E7022580F8355005682E6846F4C1
:101B400080262E6005682B6103685C608368402BEB
:101B5000036803BF9A600268D16099601CBF016886
:101B6000CA600068016841F001010160D9E790F89E
:101B70003510022903D080214165012070470521DD
:101B800080F835100068016821F001010160002033
:101B900070470000002804BF0120704790F83510FE
:101BA000022904BF02207047002102682123D2F8D5
:101BB00000C02CF0010CC2F800C00268116002687D
:101BC0005160026891600268D16002681161026828
:101BD000536102680F4B02F0FF0CACF1100C6FF375
:101BE0000902A3FB0CC3DFF830C01B09032B1CF850
:101BF00003C0C0F85CC088BF121D3F23826503FA92
:101C00000CF39360416580F8351080F834100020A3
:101C100070470000ABAAAAAAC63601082DE9F04712
:101C2000044600F039FA002C054604BF0120BDE847
:101C3000F0870026022084F8346084F8350020689C
:101C4000016821F0010101602068006810F0010FB7
:101C500011D000BF00F020FA401B052806D9202132
:101C60006165032084F83500BDE8F08720680068CE
:101C700010F0010FEED1D4E9023CD4E90010D4E910
:101C8000047218434CEA0708D4E90653D4E908C79C
:101C900040EA0809086849EA0202DFF8F8802A43A6
:101CA00042EA030200EA080042EA0C02042F42EA78
:101CB000000003D1D4E90B231A43104308602368C2
:101CC0000122606A5969042821F0070140EA0101F4
:101CD00044D1A06AD4F818C00143BCF1000F0AD067
:101CE000BCF5005F1CD000281CBF012802282CD0A6
:101CF000032826D032E020B1012807D002280AD0DC
:101D00002CE0E06A10F0807F1FD127E0E06AB0F19C
:101D1000C07F23D119E0E06A10F0807F15D11DE06B
:101D200098B1012808D002280FD0032804BFE06A28
:101D3000B0F1C07F09D011E0E06A10F0807F04D1DB
:101D40000CE0E06A10F0807F08D04FF04000606542
:101D500084F835204FF00100BDE8F0875961206814
:101D60000D49C3B2A3F110036FF30900A1FB0331C6
:101D70000A4B4FEA111103295B5CE36588BF001D24
:101D80003F21A06599408160666584F83520002078
:101D9000BDE8F0873F8010E0ABAAAAAAC6360108CA
:101DA00070B490F834404FF0000C012C02BF0220B8
:101DB00070BC704790F83560012580F834500024DD
:101DC000012E1CBF4FF0020C80F8344002D070BCD2
:101DD00060467047022580F83550446504682568E0
:101DE00025F480252560046863608368402B0368C0
:101DF00003BF9A600268D16099601CBF0168CA6025
:101E00000068016841F001010160E0E731B500F0D0
:101E100043F9044600F040F90099001B8842F9D3C9
:101E200038BD00002DE9F84F8F4E002201274FF0FA
:101E300003094FF00F0800BF0B6807FA02FC03EA22
:101E40000C03634540F00A814C68022C18BF122C29
:101E500013D14FEAD204D1F810B04FEA427A00EB26
:101E60008404256A4FEADA6A08FA0AFE0BFA0AFACB
:101E700025EA0E054AEA0505256291F804B04FEA05
:101E80004204D0F800A00BF0030B09FA04F50BFA9A
:101E900004FB2AEA050A4BEA0A0AC0F800A0D1F8B6
:101EA00004A0BAF1010F18BFBAF1020F05D0BAF1C0
:101EB000110F18BFBAF1120F19D1D0F808A0D1F83C
:101EC0000CB02AEA050A0BFA04FB4BEA0A0AC0F82E
:101ED00008A0D0F804A091F804B02AEA0C0CCBF3C7
:101EE000001B0BFA02FA4AEA0C0CC0F804C0D0F846
:101EF0000CC0D1F808A02CEA050C0AFA04F444EA54
:101F00000C0CC0F80CC0D1F804C01CF0805F7DD070
:101F1000356822F0030C4FEA827445F48045356041
:101F20004FEA147435680CF1804C0CF5983C05F4BC
:101F30008045009508FA04FADCF80858A0F1804BB7
:101F4000BBF5003B25EA0A0508BF4FF0000A48D060
:101F5000A0F1804ABAF5013A08BF4FF0010A40D01B
:101F6000A0F1804ABAF5023A08BF4FF0020A38D011
:101F7000A0F1804ABAF5033A08BF4FF0030A30D007
:101F8000A0F1804ABAF5043A08BF4FF0040A28D0FD
:101F9000A0F1804ABAF5053A08BF4FF0050A20D0F3
:101FA000A0F1804ABAF5063A08BF4FF0060A18D0E9
:101FB000A0F1804ABAF5073A08BF4FF0070A10D0DF
:101FC000A0F1804ABAF5083A08BF4FF0080A08D0D5
:101FD000A0F1804ABAF5093A0CBF4FF0090A4FF058
:101FE0000A0A0AFA04FA214C4AEA0505CCF808580C
:101FF0004D68D4F800C015F4803F2CEA030C18BFDC
:102000004CEA030C1A4DC4F800C000E026E04C680E
:10201000D5F800C014F4003F2CEA030C18BF4CEABA
:10202000030CDFF850A0C5F800C04C68DAF800C017
:1020300014F4801F2CEA030C18BF4CEA030C0E4C5E
:10204000CAF800C04D68D4F800C015F4001F2CEA8F
:10205000030C18BF4CEA030CC4F800C0521C102A31
:10206000FFF4EAAEBDE8F88F44380240003C01407E
:10207000043C0140083C01400C3C01400069084020
:1020800018BF012070474269514041617047002AE2
:1020900008BF09048161704701480068704700006B
:1020A0000C00022002480168491C016070470000D2
:1020B0000C000220074810B5016841F4007101606E
:1020C000052000F093FA0F2000F006F800F0D2F996
:1020D000002010BD003C0240084A10B504464FF4F1
:1020E0007A701268B2FBF0F002F054FB0022214635
:1020F000501E00F04BFA002010BD00000800022026
:102100002DE9F05F044690F8A000012804BF0220EA
:10211000BDE8F09F0125022002EB820384F8A05065
:1021200084F8A10003EBC200B1E8C81F04EB8000F3
:102130003830A0E8C81F91E8C811203980E8C811DC
:10214000204609F0ADF9216800204D6284F8A150C5
:1021500084F8A000BDE8F09F002804BF012070476C
:1021600070B5044690F8A100002520B9204684F8F7
:10217000A05000F081F83F48022184F8A11001220C
:1021800021688B6923F070438B61D4E9013C43EAF9
:102190000C03D4E9031C41EA0C0C216843EA0C034C
:1021A000D1F818C043EA0C038B6121688B680340A7
:1021B0008B602168A38AD4F818C08E6846EA0C0C9C
:1021C0004CEA03438B602168CB680340CB602168F5
:1021D000A38BD4F820C0CE6846EA0C0C4CEA03432B
:1021E000CB6021680B6903400B612168A38CD4F894
:1021F00028C00E6946EA0C0C4CEA03430B612168C7
:102200004B69184048612068A18D236BD0F814C039
:102210004CEA030343EA01414161216894F83530F7
:1022200094F83600D1F82CC000040CF07F4CC1F8B3
:102230002CC040EA0321206894F83430D0F82CC038
:102240004CEA03031943C1622068416B41F0040169
:1022500041632068416B41F002014163206881695C
:1022600041F001018161C4F8A45084F8A12000204C
:1022700070BD000000F800F0344810B586B0016869
:1022800041F080610160006800F080600590304896
:10229000016841F400010160016801F40001059149
:1022A000016841F002010160016801F0020105913D
:1022B000016841F020010160016801F020010591F1
:1022C000016841F040010160016801F040010591A1
:1022D000016841F080010160016801F08001059111
:1022E000016841F48071016000680324202100F43A
:1022F000807005900120CDE90204CDE90010154859
:102300006946FFF78FFD022100220E2304934FF44C
:1023100080608DE8170010486946FFF783FD4FF491
:102320000C6000900D486946FFF77CFD4FF47E403D
:1023300000900B486946FFF775FD40F2F76000908A
:1023400008486946FFF76EFD06B010BD44380240EC
:1023500030380240000402400014024000180240DD
:10236000001C02400020024070B5044690F8A00016
:102370008C46012804BF022070BD03EB830000EBF4
:10238000C301012584F8A050022004EB810184F8E8
:10239000A100C1F838C0086E6044C1E90F02486E60
:1023A0001044486438311A46204609F079F821680B
:1023B00000204D6284F8A15084F8A00070BD70B573
:1023C000044690F8A0008C46012804BF022070BD8E
:1023D00003EB830000EBC300012504EB800084F8CD
:1023E000A050002600F13801022084F8A100204608
:1023F000C1E9006CC1E90262C1E90AC21A4609F0EA
:102400004FF82068456284F8A150002084F8A0604D
:1024100070BD0000DFF858C0F0B443780CF104023E
:10242000111DCCF800300378002B04BF0020106091
:102430001BD043681360057BC37A827A90F80DC085
:102440002F07847B47EA0367C57B47EAC242467A87
:1024500042EA8C42037A42EA444242EA0542007868
:1024600042EA062242EA430210430860F0BC704789
:1024700098ED00E07047002804BF0120704770B558
:10248000044690F8210015460E4628B9002084F82D
:102490002000204600F018F82068211DFEF79EFB62
:1024A000D4E900023146FEF786FBD4E90002294652
:1024B000FEF76FFB20680121026842F0040202600F
:1024C00084F82110002070BD254870B586B00168E1
:1024D00041F001010160006800F001000590214811
:1024E000016841F008010160016801F008010591EF
:1024F000016841F010010160016801F010010591CF
:10250000016841F04001016000680121164E00247D
:1025100000F0400005900325039540200090CDE990
:10252000014169463046FFF77DFC701502210C22FF
:1025300004928DE833000D486946FFF773FC4DF6B1
:1025400033006946029400903046FFF76BFC4FF46D
:10255000F060009006486946FFF764FC06B070BD65
:102560003838024030380240000C02400018024067
:1025700000100240410900F01F008A00012102F111
:10258000E02201FA00F0C2F800017047164B30B4A7
:102590001B68C3F30223C3F1070CBCF1040F88BF0F
:1025A0004FF0040C1C1D072C34BF0023DB1E01243C
:1025B00004FA0CFC04FA03F5ACF101042140A5F186
:1025C000010C99400CEA0202114300284FEA011164
:1025D000B8BF00F00F0000F1E020B4BF80F8141D78
:1025E00080F8001430BC70470CED00E0074900F0A3
:1025F00007004FF6FF030A681A4042EA002040F045
:10260000FD7040F080600860704700000CED00E055
:102610001C4838B5016841F08051016000681A4DCE
:1026200000F080500090286840F480302860FFF768
:1026300033FD0446686810F4803F09D1FFF72CFD94
:10264000001BB0F57A7F15D8686810F4803FF5D08C
:10265000286840F400302860FFF71EFD04466868D3
:1026600010F4003F0CD100BFFFF716FD001BB0F5C2
:102670007A7F01D9032038BD686810F4003FF3D099
:10268000002038BD40380240007000402DE9F84F6E
:1026900016468A460446FFF7FFFC834694F8380046
:1026A000012804BF0220BDE8F88F01274FF0000881
:1026B00084F8387094F83900012818BF022504D036
:1026C00084F838802846BDE8F88F4FF00209C4F836
:1026D0003C8084F83990002220215B4620460096F9
:1026E0000AF0B0FB0500EBD10022514620460AF06B
:1026F00017FADAF82400002818BF84F83970DFD1FF
:1027000001225B460221204600960AF09BFB050051
:10271000D6D12068C0F80C9084F83970D0E700005A
:102720002DE9F8430446FFF7B7FC002C074604BF29
:102730000120BDE8F88394F83800012804BF022086
:10274000BDE8F8830126002584F8386094F8390044
:1027500038B984F83850204600F048F841F2883003
:10276000206420686FF0FF03A268016803EB022277
:1027700021F4F85111430160206C002220213B46D6
:10278000009020460AF05EFB50BB2168D4E907C3E5
:102790002779E268D1F8008042EA0C0C124A43EA39
:1027A00007634CEA030328F0D00C2CF07F4C43EA7B
:1027B0000C030B602168D4E9053C278AD1F804801A
:1027C00043EA0C0308EA020242EA07421A434A605B
:1027D00021680A6842F001020A60E56384F8396002
:1027E00084F83850BDE8F883FEF8E0FF214830B5A2
:1027F00087B0016841F002010160006800F002004A
:1028000005901D48016841F002010160016801F076
:1028100002010591016841F0200101600068032474
:102820000221164D00F020000590402001220A23CD
:1028300004938DE8170069462846FFF7F3FA002154
:10284000CDE9021420020E4C694600902046FFF7A5
:10285000E9FA042000900921284604916946FFF70F
:10286000E1FAC020694600902046FFF7DBFA07B086
:1028700030BD0000383802403038024000040240C9
:10288000001402402DE9F84F15468A460446FFF72A
:1028900003FC81462068816994F8382000F1200605
:1028A000012A04BF0220BDE8F88F01274FF000087D
:1028B00084F8387094F83920012A18BF022003D018
:1028C00084F83880BDE8F88FBAF1000FC4F83C8076
:1028D00035D0222284F839200269521C62860269AE
:1028E000521C2286C4F82CA0426922F0406242F0B9
:1028F0008062426120688161608E90B101224B4606
:102900000621204600950AF09DFAA8B93178E06AC0
:10291000421CE2620170608E401E6086608E00285C
:10292000ECD101224B460221204600950AF08AFA9A
:1029300010B922680221D16084F83970C0E7E16BD8
:10294000012041F00801E163BAE700002DE9F84FEA
:1029500015468A460446FFF79FFB94F838108146D7
:102960002068012900F1200604BF0220BDE8F88F8D
:1029700001274FF0000884F8387094F839100129C5
:1029800018BF022004D000BF84F83880BDE8F88F5B
:10299000BAF1000FC4F83C8031D0122184F839100C
:1029A0000169491C61850169491C2185C4F824A07D
:1029B000416921F040614161608D90B101224B4637
:1029C0000421204600950AF03DFAA8B9606A411C2E
:1029D000616200783070608D401E6085608D0028D7
:1029E000ECD101224B460221204600950AF02AFA3A
:1029F00010B922680221D16084F83970C4E7E16B14
:102A0000012041F00801E163BEE700002DE9F84F25
:102A100004460078DFF824844FF0000910F0010F1D
:102A2000CA4610D0D8F8000020F40000C8F8000012
:102A3000D8F80000616B0843C8F80000606B0028FC
:102A400008BF4FF00109FE4D206810F4002F10D090
:102A5000E06B296821F4401108432860E06BB0F571
:102A6000801F08BF4FF0010903D0002808BF4FF0B6
:102A7000010A206810F4801F10D0206C296821F40E
:102A8000400108432860206CB0F5800F08BF4FF06C
:102A9000010903D0002808BF4FF0010A206810F098
:102AA000807F18BF4FF0010910F0200F60D0E5487B
:102AB000016841F0805101600068E34F00F08050F0
:102AC0000090386840F480703860FFF7E5FA0646F9
:102AD000386810F4807F09D1FFF7DEFA801B642884
:102AE00000F24D83386810F4807FF5D0D74F3868F6
:102AF00010F4407028D0218E01F44071814223D01F
:102B00003868396820F4407041F4803139603968A0
:102B100021F4803139603860386810F0010F13D02B
:102B2000FFF7BAFA0646386810F0020F08BF41F204
:102B3000883B09D1FFF7B0FA801B584500F21F838C
:102B4000386810F0020FF5D0206B4FF440718143CC
:102B50001CBFD8F8000020F4F81000F0F58000BF8A
:102B6000C8F80000208E3968C0F30B0008433860B5
:102B7000207810F0100F07D0286820F080702860AF
:102B80002868A16B084328602188B14811F4804F60
:102B900005D0616E026822F4403211430160218841
:102BA00011F4004F05D0A16E026822F440221143B7
:102BB0000160216811F4803F05D0E16E026822F4C3
:102BC000401211430160216811F4003F05D0216FCC
:102BD000026822F4400211430160217811F0400F95
:102BE00005D0616C026822F0030211430160217874
:102BF00011F0800F05D0A16C026822F00C02114385
:102C00000160218811F4807F05D0E16C026822F018
:102C1000300211430160218811F4007F05D0216D3D
:102C2000026822F0C00211430160218811F4806F14
:102C300005D0616D026822F4407211430160218861
:102C400011F4006F05D0A16D026822F440621143B7
:102C50000160218811F4805F05D0E16D026822F4E3
:102C6000405211430160218811F4005F05D0216EAC
:102C7000026822F4404211430160216811F4800F80
:102C800005D0A16F026822F08062114301602168C3
:102C900011F4001F0BD0E16F026822F000621143B3
:102CA0000160E16FB1F1006F08BF4FF0010A2168C8
:102CB00011F0080F18BF4FF0010A11F4802F05D052
:102CC000616F026822F0407211430160216811F4C3
:102CD000000F06D0D4F88010026822F08052114311
:102CE0000160216811F0806F06D0D4F8841002686A
:102CF00022F0005211430160206810F0006F06D0EE
:102D0000D4F88800296821F0007108432860206801
:102D100010F0805F06D0D4F88C00296821F0806123
:102D200008432860B9F1010F47F6C0794FF44036E7
:102D30004FF070674FF0E0481CBF2068B0F1007F93
:102D40000DD000F02CB900BFD8F8001020F440706E
:102D500020F0704021F4F81141EA000000E73D48FE
:102D6000016821F080610160FFF796F983463948D8
:102D7000006810F0006F0BD0FFF78EF9A0EB0B008E
:102D8000642800F2FC813348006810F0006FF3D132
:102D9000207810F0010F34D0606B90BB2E4A106881
:102DA00096FAA6F1126897FAA7F300F44030D4F827
:102DB00004C0B1FA81F199FAA9FBC84002F0706130
:102DC000B3FA83F296FAA6FEBBFA8BF3BEFA8EFB39
:102DD000D14097FAA7FE0CFA03F2BEFA8EF3D4F8AC
:102DE00008C000FA0BF098FAA8FEDFF86CB01043A8
:102DF0009940BEFA8EF208430CFA02F10843CBF870
:102E00000000206810F4002F03D0E16BB1F5801FA3
:102E100006D010F4801F4CD0206CB0F5800F48D144
:102E20000D49086896FAA6F2096800F44030B2FA33
:102E300082F296FAA6FC99FAA9FB0FE00838024044
:102E40008C38024040380240007000407038024028
:102E5000903802400038024084380240D04097FA4F
:102E6000A7F26368BCFA8CFCB2FA82FEBBFA8BFB59
:102E700098FAA8F200FA0CF003FA0BF301F0E04123
:102E8000D4F80CB0B2FA82F298FAA8FCD1401843F8
:102E9000C04BBCFA8CFC0BFA0EF2104301FA0CF199
:102EA000084318602868616A20F01F02481E10431A
:102EB0002860206810F0807F33D0B64A106897FAF7
:102EC000A7F1126896FAA6FB00F07060B1FA81F1E2
:102ED00099FAA9FCC8400090BBFA8BFB2169BCFAA7
:102EE0008CFC606898FAA8F302F0E04201FA0BF15A
:102EF00000FA0CF097FAA7FB40EA010E0098B3FA2B
:102F000083F3A449BBFA8BFC98FAA8FBDA4000FAD9
:102F10000CF3BBFA8BF04EEA030302FA00F01843FD
:102F20000860206810F0007F20D099FAA9F160684D
:102F300096FAA6F3D4F808E0D4E903C2B1FA81F115
:102F4000B3FA83F300FA01F197FAA7FB91489A408C
:102F5000BBFA8BF398FAA8FB11430CFA03F2BBFA05
:102F60008BF311430EFA03F2114301608A480168A2
:102F700041F080610160FFF78FF883468648006862
:102F800010F0006F0BD100BFFFF786F8A0EB0B002D
:102F900064287CD88048006810F0006FF4D0BAF143
:102FA000000F75D0DFF8F0A1DAF8000020F08050B3
:102FB000CAF80000FFF770F88346DAF8000010F056
:102FC000005F0AD0FFF768F8A0EB0B0064285ED81A
:102FD000DAF8000010F0005FF4D1206810F4002F40
:102FE00001D0E16B21B110F4801F3CD0206CD0BB2C
:102FF0006A49086896FAA6F2096800F44030B2FA05
:1030000082F2636996FAA6FCD04099FAA9FB97FA76
:10301000A7F2BCFA8CFCB2FA82FEBBFA8BFB98FAE0
:10302000A8F200FA0CF003FA0BF301F0E041D4F837
:1030300018B0B2FA82F298FAA8FCD1401843574B64
:103040000BFA0EF2BCFA8CFC104301FA0CF10843A7
:1030500018606FF0FF0B2868A16A20F4F8500BEBA2
:10306000012108432860206810F4001F39D0E06F68
:10307000B0F1006F35D14949086897FAA7F309689C
:1030800098FAA8F299FAA9FCB2FA82F201E076E085
:103090007DE096FAA6FB00F07060B3FA83F3BBFA0A
:1030A0008BFED4F820B0D8406369BCFA8CFC0BFAD4
:1030B0000EFB97FAA7FE03FA0CF301F0E041BEFA0B
:1030C0008EFC98FAA8FED14000FA0CF243EA0B0BF2
:1030D000324BBEFA8EF04BEA020201FA00F01043C6
:1030E0001860207810F0080F36D02C48026801686C
:1030F00096FAA6F396FAA6FCD4F814B001F440317F
:10310000B3FA83F397FAA7F699FAA9F9D94002F02E
:103110007062B6FA86F3B9FA89F6DA40BCFA8CFC2A
:103120000BFA06F397FAA7F701FA0CF6B7FA87F14C
:10313000D4F81CC098FAA8F702FA01F1B7FA87F29E
:10314000334319430CFA02F2114301602868E16A23
:1031500020F4403008432860DAF8000040F0805046
:10316000CAF80000FEF798FF0446DAF8000010F0F5
:10317000005F0CD1FEF790FF001B642802D90320EA
:10318000BDE8F88FDAF8000010F0005FF2D0002000
:10319000BDE8F88F84380240003802408838024089
:1031A0002DE9F047DFF8E48106460F46D8F8000025
:1031B00000F00F00B8420CD2D8F8000020F00F0049
:1031C0003843C8F80000D8F8000000F00F00B842FB
:1031D00072D130786E4D10F0020F05D0B0682968BA
:1031E00021F0F00108432860307810F0010F50D032
:1031F00070686849012821D00968022823D011F09D
:10320000020F59D0296821F0030108432860FEF716
:1032100043FF0446706841F28839012817D002281C
:10322000286800F00C0022D000B300BFFEF734FF86
:10323000001B484529D90320BDE8F087096811F42F
:10324000003FDFD138E011F0007FDBD134E02868A7
:1032500000F00C0004281CD0FEF71EFF001B4845A0
:10326000E9D8286800F00C000428F5D111E00828FE
:103270000FD000BFFEF710FF001B4845DBD82868C1
:1032800000F00C000828F5D103E0286810F00C0FBE
:10329000CCD1D8F8000000F00F00B8420FD9D8F810
:1032A000000020F00F003843C8F80000D8F80000F4
:1032B00000F00F00B84202D00120BDE8F08730785E
:1032C00010F0040F05D0F068296821F4E05108439C
:1032D0002860307810F0080F06D03069296821F492
:1032E000604141EAC00028602B48296811F00C01B8
:1032F00038D02A4B042908BF184633D0082931D1C9
:10330000274947F6C07C0A680C6802F03F0214F4B3
:10331000800F0CD00868B3FBF2F29CFAACF300EA21
:103320000C00B3FA83F3D84002FB00F20CE00B6808
:10333000B0FBF2F09CFAACF203EA0C03B2FA82F2B0
:1033400023FA02F200FB02F208684FF4403393FACA
:10335000A3F100F44030B1FA81F1C840401C4000B4
:10336000B2FBF0F02968F02292FAA2F201F0F0012B
:10337000B2FA82F2D1400B4A515CC8400A49086057
:103380000F20FEF7A9FE0020BDE8F087003C0240B8
:1033900008380240003802400024F40040787D01E3
:1033A00004380240AE3601080800022008484FF4F5
:1033B000E052016892FAA2F2064801F4E051B2FA32
:1033C00082F2D140044A0068515CC8407047000056
:1033D0000838024008000220BE36010808484FF4B1
:1033E0006042016892FAA2F2064801F46041B2FA22
:1033F00082F2D140044A0068515CC8407047000026
:103400000838024008000220BE360108214922483F
:10341000096811F00C0108BF7047204B042904BF54
:1034200018467047082918BF70474DF8044D47F6F5
:10343000C0711B4AD2F800C014680CF03F0C14F4A1
:10344000800F0BD01068B3FBFCF391FAA1FC08408D
:10345000BCFA8CF1C84003FB00F00AE01368B0FB33
:10346000FCF091FAA1FC1940BCFA8CF3D94000FBA6
:1034700001F011684FF440335DF8044B93FAA3F266
:1034800001F44031B2FA82F2D140491C4900B0FB4C
:10349000F1F07047083802400024F40040787D01C4
:1034A000043802402DE9F84FF74F05460078A7F1A0
:1034B000040810F0010FA8F1040659D0386800F094
:1034C0000C00042809D0386800F00C0008280DD141
:1034D000D8F8000010F4800F08D0306810F4003FD6
:1034E00046D06868002800F0CB8141E06868B0F5FC
:1034F000803F04BF306840F480300AD010B1B0F58E
:10350000A02F11D0306820F480303060306820F473
:10351000802030606868D0B1FEF7BEFD0446306898
:1035200010F4003F08D023E0306840F48020306081
:10353000306840F48030ECE7FEF7AEFD001B6428F5
:1035400000F23781306810F4003FF5D010E0FEF74C
:10355000A3FD0446306810F4003F09D0FEF79CFD3F
:10356000001B642800F22581306810F4003FF5D17B
:10357000287810F0020F5CD038684FF0F80910F08E
:103580000C0F18D0386800F00C00082804BFD8F8D9
:10359000000010F4800F0ED0E8680028306834D0A6
:1035A00040F001003060FEF777FD0446306810F00F
:1035B000020F15D01DE0306810F0020F1CBFE86844
:1035C000012840F05D812869316899FAA9F2B2FAC0
:1035D00082F221F0F80100FA02F041EA000012E064
:1035E000FEF75AFD001B02287ED8306810F0020F4B
:1035F000F6D02969306899FAA9F2B2FA82F220F07D
:10360000F80091400843306013E020F00100306082
:10361000FEF742FD0446306810F0020F09D000BFEB
:10362000FEF73AFD001B02285ED8306810F0020F4A
:10363000F6D1287810F0080F34D0DFF8509268697E
:103640000028D9F8000016D040F00100C9F80000A9
:10365000FEF722FD0446D9F8000010F0020F21D138
:10366000FEF71AFD001B02283ED8D9F8000010F022
:10367000020FF5D016E020F00100C9F80000FEF7B7
:103680000BFD0446D9F8000010F0020F0AD000BF6D
:10369000FEF702FD001B022826D8D9F8000010F022
:1036A000020FF5D1287810F0040F69D0784801682E
:1036B00041F0805101600068DFF8D89100F080503F
:1036C0000090D9F8000040F48070C9F80000FEF7BF
:1036D000E3FC0446D9F8000010F4807F0CD100BF51
:1036E000FEF7DAFC001B00E063E0642861D8D9F83B
:1036F000000010F4807FF3D0A868674C012804BF55
:10370000206840F0010009D008B1052813D02068D6
:1037100020F001002060206820F004002060A868EC
:1037200041F2883AD0B1FEF7B7FC8146206810F02C
:10373000020F08D024E0206840F0040020602068D8
:1037400040F00100EAE7FEF7A7FCA0EB09005045B6
:103750002FD8206810F0020FF5D011E0FEF79CFC86
:103760008146206810F0020F0AD000BFFEF794FCDB
:10377000A0EB090050451CD8206810F0020FF5D1CD
:10378000A869E8B3396801F00C01082978D002284B
:10379000306820F0807030600ED0FEF77DFC04466B
:1037A000306810F0007F68D0FEF776FC001B02281E
:1037B0005FD90320BDE8F88FFEF76EFC0446306841
:1037C00010F0007F09D000BFFEF766FC001B022846
:1037D000EFD8306810F0007FF6D1D5E909C147F67F
:1037E000C0704FF0FF324FF4403790FAA0F497FAD0
:1037F000A7F002EB51074FF07069B4FA84F100E0D2
:103800003BE0D5E90732B0FA80F00CFA01FA07FA8A
:1038100000F043EA020199FAA9F74FF0E0444AEABE
:103820000003D5E90BC294FAA4F4B7FA87F0194360
:103830000CFA00F0B4FA84F3084302FA03F10843E7
:10384000C8F80000306840F080703060FEF724FC5B
:103850000446306810F0007F0FD100BFFEF71CFC5B
:10386000001B0228A5D8306810F0007FF6D004E0D5
:1038700006E0306810F0007F96D10020BDE8F88F98
:103880000120BDE8F88F000008380240743802407B
:10389000403802400070004070380240002804BFE9
:1038A0000120704770B5044690F82C000D4628B9E9
:1038B000002084F82D00204600F012F8022084F841
:1038C0002C002068211DFDF753FAD4E90002294697
:1038D000FDF7AFFA012084F82C00002070BD000035
:1038E0002F484DF804ED87B0016841F001010160F7
:1038F000006800F0010005902A48016841F00401C9
:103900000160016801F004010591016841F00801BE
:103910000160016801F008010591016841F01001A2
:103920000160016801F010010591016841F020017A
:103930000160016801F020010591016841F040013A
:1039400001600068022101224FF00C0C00F04000E1
:1039500005900D2003238DE80F1013486946FEF7EC
:1039600061FA4CF20370009010486946FEF75AFA6B
:103970004FF6837000900E486946FEF753FA4FF6F3
:103980003F0000900B486946FEF74CFA48F23710AA
:10399000009009486946FEF745FA07B05DF804FB58
:1039A000383802403038024000080240000C024023
:1039B00000100240001402400018024010B50446F6
:1039C00090F82C00022808BF10BD022084F82C00BB
:1039D0002068FDF7FFF9012084F82C00002010BDBD
:1039E00070B5044690F82C000D46022808BF70BD43
:1039F000022084F82C002068FDF7F2F928680228DC
:103A00000CBF0520012084F82C00002070BD0000B0
:103A10002DE9F00F90F8202081F85620828CA1F833
:103A20005420826A120E4FEA921C81F800C0C2F341
:103A3000830302F003024B708A70826A120CCA7010
:103A4000028D120A0A7190F828204A714FF6FF7908
:103A5000C26A120E09EA0212CA80CB88C26AC2F395
:103A600007424FEA121C02F00F0243EA0C03CB801C
:103A70000A720023828DC2F307224FEAD21C81F81A
:103A800009C0C2F38014C2F34015C2F300168C7251
:103A9000CD720E734B734FF0010C046A9846002CE4
:103AA00018BF012C00F0B780022C18BF4FF0290876
:103AB00000F0F480C2F380144C769206520E8A769F
:103AC00090F830208C7ED5092C438C7602F07F0252
:103AD000CA76426B120ED4090C77C2F34115C2F3B9
:103AE000820692074D778E77120FCA77CC7F426B92
:103AF000C2F3074244EA9214CC77C2F3401502F0B5
:103B0000010281F8205081F8213081F82220828E34
:103B1000C2F30722D30981F82330C2F38014C2F321
:103B20004015C2F30016C2F3810702F0030281F8C8
:103B3000244081F8255081F8266081F8277081F8AB
:103B4000282090F83420520881F8292081F82AC0D2
:103B5000826B120E81F82C20826B120C09EA022271
:103B6000CA85CB8D028FC2F307221A43CA8590F80B
:103B7000382012060A630B6BC26B120E43EA024234
:103B80000A630B6BC26BC2F3074243EA02220A6369
:103B90000B6B828FC2F307221A430A6390F83C2012
:103BA00081F83420026C120E81F83520026C120C60
:103BB00012068A638B6BB0F84020C2F3072243EAF7
:103BC00002428A638B6B90F8402043EA02228A63A8
:103BD0008B6B426C43EA12628A6391F83C30426C10
:103BE000C2F30742150743EA121281F83C202B0D5D
:103BF000CB87CB8FB0F84420C2F307221A43CA8781
:103C000090F84400400881F8400081F841C04046E7
:103C1000BDE8F00F70479207120D0A610C6990F829
:103C20002C2044EA82020A610C69026B120E44EAFB
:103C300092140C61C2F3C20602F007020E754A75B7
:103C4000026BC2F30742940755098D75C2F38202D5
:103C5000CA75640F0C760C7E028EC2F3072244EA0A
:103C6000D2140C760C690E7E0D7AB61C0CFA06F78F
:103C70000CFA05F5641C0D654FEAE77AA4FB076BA7
:103C800003FB07B704FB0A74A6FB057A04FB05A433
:103C900006FB0344C1E912740CE700BF90F82C2026
:103CA0004FF400749206920A0A610D69026B120EBB
:103CB00045EA02220A610D69026BC2F307422A43F8
:103CC0000A610A69068E551CC6F3072243F10006F5
:103CD000F7046E0BED048D643E43C1E91364E9E61D
:103CE0002DE9F34F8DB0044600258DF82850057757
:103CF00000F0F2F9762000952B462A462946CDE9B8
:103D00000150206809F08BFAA8468DF80050C14692
:103D10002068416821F480714160206809F094FABC
:103D20000120FEF773F820684FF48067416841F482
:103D300080714160029502A903950495CDE905576C
:103D4000206809F088FA23680022B801596BC1F392
:103D5000C01104E0596B401EC1F3C01111D00029FD
:103D6000F8D000281CBF40F2FF50986309D000BF74
:103D70008DF800209DF800004FF0040B00287DD145
:103D800001E00322F4E708214FF4D57040260496A1
:103D9000CDE90201206802A909F05DFA2168292015
:103DA000B3024A6B12F0450F07D14A6BA3F101032E
:103DB00012F0450F01D1002BF7D14A6BC2F38002FC
:103DC00003B11AB10320C1F838B005E04A6B12F014
:103DD000400F1CBF00208E638DF800009DF800008E
:103DE00018B9012020624FF080494FF0370A02A92C
:103DF000CDE9025A206809F02EFA3721204609F051
:103E0000BDFA8DF800009DF80000002804BF49F4B9
:103E1000801949F000494ED1CDE9025ACDE9046537
:103E2000069702A9206809F016FA3721204609F002
:103E3000A5FA8DF800009DF80000F8B92920CDF80A
:103E40000890CDE90306CDE90557206802A909F0DD
:103E500002FA20680022416B11F0450FFBD0416B44
:103E600011F0040F07BF40F2FF5181630322C0F835
:103E700038B08DF800209DF8000000E01BE0D0B9BC
:103E80002068002109F0C4F9C10F08F1010803D12D
:103E90004FF6FF718845BFD34FF6FF71884505D3B4
:103EA0001B208DF800009DF8000006E010F0804F08
:103EB0001CBF022020629DF800008DF828009DF8AC
:103EC0002800002874D14FF00108ADF80480206864
:103ED000002609F099F9002816BF206A2526042833
:103EE00065D04FF002004FF0C001CDE906150897EC
:103EF00004A9CDE90450206809F0ADF92068002636
:103F0000416B11F0450FFBD0416B11F0040F7DD1D7
:103F1000416B11F0010F7AD140F2FF5181632068AB
:103F20004FF0000109F074F9A0630421206809F042
:103F30006FF9E0630821206809F06AF920640C2118
:103F4000206809F065F96064206A002818BF01281C
:103F500003D0062818BF022847D14FF040014FF088
:103F60000300CDE90501206804A909F074F921686E
:103F700000260DF104094FF0030A486B10F0450FBD
:103F8000FBD0486B10F0040F1CBF0326C1F838B0FB
:103F90006BD1486B10F0010F1CBF4646C1F838804A
:103FA00063D1084609F02DF9504502D010265CE097
:103FB00060E0216840F2FF5088630021206809F02A
:103FC00027F910F4604F04BF000CA9F800000CD0D2
:103FD00010F4005F18BF132647D110F4804FE5D1CD
:103FE00010F4004F18BF0F263FD1206A04283CD0A0
:103FF000BDF8040009226062C02306930104CDE9E4
:104000000412206804A909F026F901E00AE011E091
:1040100020680026416B11F0450FFBD0416B11F079
:10402000040F03D00326C0F838B01EE0416B11F036
:10403000010F03D04646C0F8388016E040F2FF5129
:1040400081632068002109F0E3F8A0620421206860
:1040500009F0DEF8E0620821206809F0D9F8206351
:104060000C21206809F0D4F860638DF828609DF871
:10407000280020B19DF828000FB0BDE8F08F0E9900
:104080002046FFF7C5FC8DF828009DF82800A0B950
:104090000E980722B0F85400CDE9045701040191AD
:1040A000402001A9CDE90220206809F0D4F80721B9
:1040B000204609F063F98DF82800D4E90401A269CB
:1040C0000292CDE9000194E80F0009F0A8F89DF8EC
:1040D00028000FB0BDE8F08F1D484DF804ED87B003
:1040E000016841F400610160006800F4006005901F
:1040F0001848016841F480010160016801F4800101
:104100000591016841F004010160016801F00401BA
:104110000591016841F00801016000680221012257
:104120004FF00C0C00F00800059003234FF4F850FA
:104130008DE80F1008486946FDF774FE04200090D2
:1041400006486946FDF76EFE07B05DF804FB000007
:10415000443802403038024000080240000C02405F
:104160002DE9F04F91B00446006816460D464FF019
:104170000008DDE91A79C0F82C80206A022803D1F2
:104180000702500A40EAC35600974020102201015E
:10419000CDE90120CDE903812068694609F05BF88B
:1041A0001021204609F0EAF800281CBF11B0BDE834
:1041B000F08F09FB07F001234FF0020A4FF0FF31A7
:1041C0009022CDE90610CDE9082ACDE90A832068BE
:1041D00006A908F0FFFFB9F1010F8CBF12201120D2
:1041E000009601906946206809F035F8B9F1010F91
:1041F00023D91221204609F0C1F807001CBF11B0D5
:10420000BDE8F08F2068406B10F4957F3AD12068AC
:10421000406B10F4004F18BF002608D0206809F04A
:1042200017F845F82600761C082EF7D320352068AD
:10423000406B10F4957FEAD024E01121204609F06C
:104240009DF807001CBF11B0BDE8F08F40F22A4B6B
:104250002068406B10EA0B0F14D12068406B10F4FB
:10426000004F18BF002608D0206808F0F1FF45F87D
:104270002600761C082EF7D320352068406B10EA04
:104280000B0FEAD02068406B10F4807F18BFB9F1A3
:10429000010F19D9206A00281CBF0128022813D158
:1042A0004FF00C024FF04000CDE90E084FF4806152
:1042B0001091CDE90C8220680CA908F0CCFF0C21EC
:1042C000204609F05BF807462168486B10F0080F9C
:1042D0001CBF0822042003D08A6311B0BDE8F08F10
:1042E000486B10F0020F1FBF5046C1F838A011B044
:1042F000BDE8F08F486B10F0200F1ABF2022062077
:104300004FF0FF36E8D104E008F0A2FF761E45F832
:10431000040B2068416B11F4001F18BF002EF3D16D
:10432000014640F2FF50886311B03846BDE8F08F77
:104330002DE9F04F0546006A00240F4603288BB094
:1043400002BF27200BB0BDE8F08F00281CBF01285A
:10435000022850D1B7F5805F08BF27244BD0B7F5AE
:10436000006F4FF037084FF4806A4FF040094FF06C
:10437000060B4FF0000604D0002F18BF262430D0C3
:104380006EE0009600210196286808F041FF10F0C9
:10439000007F2FD16946284609F07CF888BB019838
:1043A00010F4802F60D0A88C04A9CDE90696CDF832
:1043B00020A00004CDE90408286808F04CFF37214C
:1043C000284608F0DBFFE0B90220CDE9040B28689D
:1043D00004A908F040FF0621284608F0CFFF80B965
:1043E00033E0049600210596286808F011FF10F0CC
:1043F000007F01D00E2433E004A9284609F04AF8D2
:1044000008B104462CE0059810F4803F2CD0A88C0D
:1044100006A9CDE90896CDF828A00004CDE9060844
:10442000286808F018FF3721284608F0A7FF002861
:10443000E7D1CDE9066B286806A908F00CFF062134
:10444000284608F09BFF0028DBD1D5E905C0EB68C2
:10445000D5E901120097CDE901C0286808F0DFFE18
:104460000BB02046BDE8F08F2524F9E72DE9F04F89
:1044700093B04FF0000A044617460D465646DDE954
:104480001C898DF818A00068C0F82CA0206A0228AA
:1044900004D1500A4FF4007840EAC357CDF81C808D
:1044A000102040218201CDE90801CDE90AA220684F
:1044B00007A908F0D0FE1021204608F05FFF002871
:1044C0001CBF13B0BDE8F08FB9F1010F8CBF1920EC
:1044D00018200797089007A9206808F0BCFEB9F1DA
:1044E000010F04D91921204608F048FF03E01821E4
:1044F000204608F043FF00281CBF13B0BDE8F08F32
:1045000009FB08F801234FF0FF3200209021CDE98C
:104510001003CDE90E10CDE90C2820680CA908F095
:1045200059FE2068B9F1010F35D9406B10F48D7F29
:1045300068D12068406B10F4804F26D0A8EB0600AD
:10454000202828BF002716D210F0030F0EBF4FEA15
:10455000900A800800F1010A0027BAF1000F14D96F
:104560002068294608F08CFE2D1D7F1CBA4506F1F7
:104570000406F5D809E0206805EB870108F080FE05
:104580007F1C082FF7D3203520362068406B10F4AD
:104590008D7FCED036E0406B40F21A4A10EA0A0F07
:1045A00030D12068406B10F4804F26D0A8EB060075
:1045B000202828BF002716D210F0030F0EBF4FEAA5
:1045C000900B800800F1010B0027BBF1000F14D9FC
:1045D0002068294608F054FE2D1D7F1CBB4506F1BE
:1045E0000406F5D809E0206805EB870108F048FECD
:1045F0007F1C082FF7D3203520362068406B10EA47
:104600000A0FCED02068406B10F4807F18BFB9F13C
:10461000010F1AD9206A00281CBF0128022814D1D2
:104620004FF00C034FF000004FF480624FF0400158
:10463000CDE901030592CDE90310206801A908F036
:104640000AFE0C21204608F099FE2168486B10F004
:10465000080F1CBF0822042003D08A6313B0BDE8F2
:10466000F08F486B10F0020F1FBF0220886313B059
:10467000BDE8F08F486B10F0100F19BF1022052015
:1046800040F2FF508863E8D106A9204608F0B8FF41
:1046900000281CBF13B0BDE8F08F9DF81810072943
:1046A00018BF0629F0D013B0BDE8F08F002804BF72
:1046B0000120704770B5044690F8450015460E4637
:1046C00028B9002084F84400204600F01BF8206838
:1046D00004F10801FCF7C4FAA26831462068FCF72F
:1046E0000FFBE36A2946D4E90102FCF795FAA168B9
:1046F000206850F8212042F0010240F821200020DB
:1047000070BD000019484DF804ED87B0016841F014
:1047100001010160006800F0010005901448016883
:1047200041F008010160016801F00801059101688C
:1047300041F0100101600068022101224FF00C0CD1
:1047400000F01000059003234EF2B3708DE80F10B7
:1047500008486946FDF766FB4FF6807000900648F2
:104760006946FDF75FFB07B05DF804FB383802408F
:1047700030380240000C02400010024004284FF084
:10478000E02001690CBF41F0040121F00401016146
:1047900070470000401EB0F1807F24BF01207047A9
:1047A0004FF0E0214861F020034A82F8140D002008
:1047B000072288610A6170470FE000E07047704788
:1047C000002804BF0120704710B5044690F8390056
:1047D000002804BF204600F00DF8022084F83900BC
:1047E0002068211D09F0BCF9012084F8390000205F
:1047F00010BD0000094808B5016841F002010160E0
:1048000000680322012100F0020000901D20FDF746
:10481000BDFEBDE808401D20FDF7ACBE403802409B
:104820000168CA6842F00102CA600068016841F08C
:104830000101016000207047704770B504460068B0
:104840000025016911F0020F1CBFC16811F0020FB1
:1048500013D001216FF00202026121762068806985
:1048600010F0030F204602D0FFF7E6FF04E000F04F
:10487000A6F8204600F0A4F825762068016911F01A
:10488000040F1CBFC16811F0040F13D002216FF098
:104890000402026121762068806910F4407F20467E
:1048A00002D0FFF7C9FF04E000F089F8204600F0CD
:1048B00087F825762068016911F0080F1CBFC168D0
:1048C00011F0080F13D004216FF008020261217665
:1048D0002068C06910F0030F204602D0FFF7ACFF3C
:1048E00004E000F06CF8204600F06AF825762068B5
:1048F000016911F0100F1CBFC16811F0100F13D027
:1049000008216FF01002026121762068C06910F45E
:10491000407F204602D0FFF78FFF04E000F04FF801
:10492000204600F04DF825762068016911F0010F4E
:104930001CBFC16811F0010F05D06FF001010161CA
:10494000204600F03FF820686FF08005016911F003
:10495000800F1CBFC16811F0800F03D00561204695
:10496000FFF72CFF2068016911F4807F1CBFC1682C
:1049700011F0800F03D005612046FFF71FFF20686C
:10498000016911F0400F1CBFC16811F0400F05D044
:104990006FF040010161204600F03CF82068016999
:1049A00011F0200F1ABFC16811F0200F70BD6FF019
:1049B000200101612046BDE87040FFF700BF70474D
:1049C000704700000849884218BF704710B5074C6F
:1049D00007A0217809F078FD0848018808A009F0AF
:1049E00073FD0020207010BD841F022034000220BF
:1049F0006672616D653A25640D0A000004000220AC
:104A00006A7065675F646174615F6C656E3A2564A6
:104A10000D0A00007047704770B5016804462025F4
:104A2000C8690A688B6810F00F0F5CD040F2011C57
:104A300013EA0C0F00F0FB8010F0010F18BF12F406
:104A4000807F07D04FF0010CC1F820C0E16E41F02B
:104A50000101E16610F0020F18BF13F0010F08D03A
:104A6000D4F800C00221CCF82010E16E41F004011E
:104A7000E16610F0040F18BF13F0010F08D0D4F84E
:104A800000C00421CCF82010E16E41F00201E16683
:104A900010F0080F0CD002F0200103F001031943BD
:104AA00006D0236808211962E16E41F00801E16631
:104AB000E16E002908BF70BD10F0200F18BF12F082
:104AC000200F0BD094F86A202046B4F85C10222AFC
:104AD00048D02068816941F008018161E06E10F0E2
:104AE000080F76D170E010F0200F18BF12F0200FE1
:104AF00069D094F86A302046B4F85C20222B04D0A8
:104B0000886940F00800886170BD8368B3F5805FF4
:104B100004BF0369002B4B6A416D03EA02021CD0FB
:104B200001F1010343650A70B0F85A10A1F10101C7
:104B30000904090CA0F85A1018BF70BD01680A6872
:104B400022F490720A6001688A6822F001028A6089
:104B500080F86A5000F0D7F970BD0A80416D891C59
:104B60004165E1E78268B2F5805F04BF0269002A0F
:104B70000368426D5B6A1FD002F1010CC0F854C09B
:104B800003EA010182F80010B0F85A10A1F1010106
:104B90000904090CA0F85A10A0D101680A6822F48F
:104BA00090720A6001688A6822F001028A6080F8C7
:104BB0006A5000F0A8F991E719401180416D891CF5
:104BC0004165E1E705E032E02068806810F0400FC1
:104BD00027D02068016821F4907101602068816805
:104BE00021F00101816084F86A502068816811F029
:104BF000400F12D0816821F040018160606E60B189
:104C00002E490165606EFCF7B2FF002808BF70BD39
:104C1000606E016DBDE8704008472046FFF7FBFE5F
:104C200070BD2046FFF7F7FE0020E06670BD10F073
:104C3000800F18BF12F0800F30D094F8690021283F
:104C400018BF70BDB4F85200A8B1A068B0F5805F7D
:104C500004BF20690028E06C17D000F10101E16475
:104C600021680078C1F82800B4F85200A0F10100D2
:104C7000A4F8520070BD086820F080000860206829
:104C8000016841F04001016070BD0088C0F3080078
:104C90008862E06C00F10200E064E5E710F0400F8C
:104CA00014BF12F0400F70BD0A68204622F0400287
:104CB0000A6084F8695000F027F970BD5FDD0008D4
:104CC000002804BF0120704710B5044690F8690021
:104CD00028B9002084F86800204600F029F8242034
:104CE00084F869002068016821F001010160204614
:104CF00009F040F8012808BF10BD606A00281CBFF9
:104D0000204608F08FFF2068416821F490414160FF
:104D10002068816821F02A0181602068016841F0E3
:104D2000010101602046BDE8104008F0E8BF000026
:104D300030B50446006887B0A0F18041B1F58831F4
:104D40001CBF07B030BD1A48016841F00101016085
:104D5000006800F0010005901648016841F010015C
:104D6000016000680122144D072300F01000059037
:104D7000022004930102CDE90010CDE9022069462A
:104D80002846FDF74FF82815694600902846FDF79C
:104D900049F82068016841F0200101602520FDF7F5
:104DA000E9FB032225201146FDF7F0FB07B030BDDB
:104DB0003038024044380240000002402DE9F05FE4
:104DC000044690F86A001D4617460E46202868D112
:104DD000002E12BF002F0120BDE8F09F94F868005C
:104DE00001285ED0012084F8680022214FF0000BDA
:104DF000C4F86CB084F86A10FDF74EF98046A068DC
:104E0000FF21A4F85870B0F5805FA4F85A7006D05E
:104E10004FF07F0250B1B0F1805F0CD012E02069FA
:104E2000002808BF40F2FF1002D109E02069B8BB9A
:104E3000A4F85C1006E02069002818BF3F2031D09C
:104E4000A4F85C00B4F85C9009F0FF0AB4F85A00CA
:104E5000401EA4F85A0020682027C06937EA0000E5
:104E600028D000BFB5F1FF3F1FD02DB1FDF714F9D9
:104E7000A0EB0801A94218D3216820200A6822F477
:104E8000D0720A6021688A6822F001028A6084F880
:104E9000690084F86A00032084F868B0BDE8F09FD8
:104EA00000E02CE0A4F85C20CCE72068C06937EA79
:104EB0000000D7D1A068B0F5805F04BF206900284A
:104EC00014D02068406A00EA0A0006F8010B00BF0F
:104ED000B4F85A000028B9D14FF0200084F86A00D5
:104EE0004FF0000084F868B0BDE8F09F21683046BC
:104EF00006F10206496A01EA09010180E8E74FF07C
:104F00000200BDE8F09F70477047FEE7114810B5FA
:104F100086B0016841F080010160006802220E4CF9
:104F2000302100F0800005900120CDE90202CDE99A
:104F3000001069462046FCF775FF0122204620211B
:104F4000FDF7A5F8012220461021FDF7A0F806B0D4
:104F500010BD000030380240001C02402DE9F04135
:104F6000374E074600243068254620F44060306004
:104F700030683060002210213046FDF788F80220AA
:104F80000AF004F9012230461021FDF780F860068E
:104F90002021040E3046FDF771F800281CBF601C6C
:104FA000C4B201200AF0F2F8681CC5B2082DE1D3A2
:104FB0004FF000024FF0100130460FB3FDF767F8D5
:104FC000306820F440603060306840F480603060C9
:104FD000002230462021FDF75AF802200AF0D6F8C8
:104FE000012230461021FDF752F802200AF0CEF8D7
:104FF000002230461021FDF74AF82046BDE8F08136
:10500000FDF745F8306820F440603060306840F4C7
:1050100080603060012230462021FDF738F8022000
:105020000AF0B4F8012230461021FDF730F80220D2
:105030000AF0ACF8002230461021FDF728F8DCE732
:10504000001C024070B51C4C06462046216821F425
:1050500040612160216841F48061216000221021BB
:10506000FDF715F85FF0000516F0800F05D001225E
:1050700020462021FDF70BF804E0002220462021E5
:10508000FDF705F87006060E02200AF07FF80122EF
:1050900020461021FCF7FBFF02200AF077F80022DF
:1050A00020461021FCF7F3FF02200AF06FF8681C7D
:1050B000C5B2082DD8D370BD001C024010B5124CEB
:1050C000206820F440602060206840F48060206008
:1050D000012220462021FCF7DAFF01222046102180
:1050E000FCF7D5FF04200AF051F8002220462021C9
:1050F000FCF7CDFF04200AF049F800222046BDE865
:1051000010401021FCF7C3BF001C024010B5124C28
:10511000206820F440602060206840F480602060B7
:10512000002220461021FCF7B2FF00222046202159
:10513000FCF7ADFF04200AF029F8012220461021D7
:10514000FCF7A5FF012220462021FCF7A0FFBDE8C7
:10515000104004200AF01AB8001C024070B5294D16
:105160000024286820F44060286028682860012214
:1051700020212846FCF78BFF01200AF007F80122C6
:1051800028461021FCF783FF012009F0FFFF2021B2
:105190002846FCF773FF00282DD0611CCCB2FA2CF6
:1051A00023D9286820F440602860286840F4806093
:1051B0002860002228461021FCF769FF00222846BB
:1051C0002021FCF764FF042009F0E0FF01222846BB
:1051D0001021FCF75CFF012228462021FCF757FF35
:1051E000042009F0D3FF012070BD20212846FCF7E0
:1051F00045FF0028D1D1002228461021FCF747FFA7
:10520000002070BD001C02401B4870B586B00168CC
:1052100041F001010160016801F00101059101689F
:1052200041F004010160016801F004010591016889
:1052300041F080010160006803240026694600F007
:105240008000059002200125CDE902040B48CDE93C
:105250000056FCF7E7FD68036946CDE900060848FB
:10526000CDE90254FCF7DEFD0C20009005486946AC
:10527000FCF7D8FD06B070BD303802400000024097
:1052800000080240001C024070B506461448134D49
:105290000168288821B13046BDE8704005F02EBE77
:1052A000698801FB00F40021084605F00BFA0D495E
:1052B00028890880002C08BF70BD04F001010A484D
:1052C000B2B2012908BF0280A14228BF70BD891C6B
:1052D0000280A1420280FAD370BD00006C0A022055
:1052E000240B0220FEFF0760000008602DE9F05F3C
:1052F0003D4C3E4DA071296839B105F071FEE88A38
:105300002080288B6080BDE8F09F002836484FF44D
:10531000305B4FF0F0084FF4285E49F241394FF40A
:1053200048764FF02C0380884FF4A0724FF4F07150
:105330004FF02A0C4FF02B0545F2105A45F210376A
:105340000BD022804845A4F8028018BFB8422BD168
:105350002381A4F80AC0A5813DE0A4F80080484557
:10536000628018BFB84208D12381B842A4F80AC0AD
:10537000A58104BF2280618031E0504509D1A4F8A5
:1053800008B04FF42C50A4F80AE0A0812180668078
:1053900025E0A0F5C852633A21D123816581A4F8A4
:1053A0000CC0218066801AE0504509D1A4F808B0ED
:1053B0004FF42C53A4F80AE0A381268061800AE010
:1053C000A0F5C858B8F1630805D12381A4F80AC034
:1053D000A58126806180B84204BF218062800020C0
:1053E000BDE8F05F04F0DEBF6C0A0220240B02204F
:1053F0002DE9F84F934B1B681BB1BDE8F84F05F042
:1054000003BE924C0E0ADFF840C2CDB227460CF123
:105410000203B4F8049000F0FF08B9894FEA102A9B
:105420007F89A9F5134BBBF1410B1CBFA9F5A04B1C
:10543000BBF5447B0AD0A9F5A04BBBF5A26B3ED0CF
:10544000A9F5C858B8F163087DD0F4E0ADF8007054
:10545000BDF80000ADF80000BDF80000ACF8000099
:10546000ADF800A0BDF80000ADF80000BDF80000E8
:105470001880ADF80080BDF80000ADF80000BDF860
:1054800000001880ADF80010BDF80000ADF8000075
:10549000BDF80000ACF80000ADF80060BDF80000F9
:1054A000ADF80000BDF800001880ADF80050BDF860
:1054B0000000ADF80000BDF800001880BBE0ADF8BA
:1054C0000070BDF80000ADF80000BDF80000ACF8B9
:1054D0000000ADF800A0BDF80000ADF80000BDF878
:1054E00000001880781CADF80000BDF80000ADF891
:1054F0000000BDF80000ACF80000ADF80080BDF879
:105500000000ADF80000BDF800001880ADF80010F4
:10551000BDF80000ADF80000BDF80000ACF80000D8
:10552000ADF80060BDF80000ADF80000BDF8000067
:105530001880481CADF80000BDF80000ADF8000070
:10554000BDF8000000E00BE0ACF80000ADF8005042
:10555000BDF80000ADF80000BDF8000018806AE05A
:1055600094F80680B8F1000F05D1B4F80080A8EBDC
:105570000000401E80B2ADF80070BDF80070ADF8BC
:105580000070BDF80070ACF80070070AADF800704C
:10559000BDF80080ADF80080BDF80080A3F8008061
:1055A000C0B2ADF80000BDF80080ADF80080BDF8D5
:1055B0000080A3F80080ADF80070BDF80070ADF871
:1055C0000070BDF800701F80ADF80000BDF800004D
:1055D000ADF80000BDF800001880ADF80010BDF86F
:1055E0000000ADF80000BDF80000ACF80000ADF818
:1055F0000060BDF80000ADF80000BDF800001880A4
:10560000ADF80050BDF80000ADF80000BDF8000096
:105610001880ADF80060BDF80000ADF80000BDF8DE
:1056200000001880ADF80050BDF80000ADF8000093
:10563000BDF8000018802089ACF800001A80BDE891
:10564000F88F0000240B0220FEFF07606C0A022086
:105650002DE9F84F0C461D4981461F460A980968F6
:1056600031B121460090484605F0F0FCBDE8F88FC6
:10567000A2EB090101F101018DB2BC4288BFBDE876
:10568000F88F86B2DFF84CB0DFF844A00BF10208C7
:105690002146484605F016F8BAF80800ABF80000B5
:1056A00075B115F0010018BFA8F80060A84207D234
:1056B000801CA8F8006080B2A8F80060A842F7D368
:1056C000601C84B2BC42E3D9BDE8F88F240B0220F1
:1056D0006C0A0220FEFF07602DE9F04F99B005F03B
:1056E00061FEFE49FE4D05F10204888018B105F007
:1056F0000FFD04F083BDFB4801460068F94A40F005
:1057000002000860106801274FF0030A4FF0200BD9
:1057100000F002001390F4486946CDE900B7CDE9E6
:10572000027AFCF77FFBDFF8C4930026F049D9F832
:105730000020084622F48032C9F8002009681923A5
:105740004FF0C04221F0010101608DF85830032074
:105750008DF85C608DF859608DF85D608DF8507043
:105760008DF85A608DF85E608DF8516015928DF855
:105770005B0014A88DF85F70FCF74CFEDC484FF01E
:105780000508C0F80080D9F8000040F48030C9F85E
:105790000000D8484FF0204CDFF85C9311215522CF
:1057A0001523C0F800C04FF0100CC0E90196C66088
:1057B0004FF48059C0E9046C86614FF4804CC66197
:1057C000C0E908694FF48019C0E90A6C06634FF01C
:1057D000150CC0E90D69CDE90C160E9205AACDF89D
:1057E0001CC00CA91296CDE905360B96FEF75EFF9C
:1057F000322009F0A7FCD320ADF84C00BDF84C00D6
:10580000ADF84C00BDF84C0028802088ADF84C0065
:10581000BDF84C00B1482188ADF84C10BDF84C10D3
:105820002188ADF84C10BDF84C104FF6FF7202EA1B
:1058300001212288ADF84C20BDF84C3019438180FD
:10584000A1F51342413A7DD0D421ADF84C10BDF8FA
:105850004C10ADF84C10BDF84C1029802188ADF8E3
:105860004C10BDF84C102188ADF84C10BDF84C1010
:105870002188ADF84C10BDF84C204FF6FF712388FD
:1058800001EA0222ADF84C30BDF84CC04CEA0202ED
:105890008280A2F5A643103B64D04FF45A42ADF883
:1058A0004C20BDF84C20ADF84C20BDF84C202A808F
:1058B0002288ADF84C20BDF84C204FF45B42ADF887
:1058C0004C20BDF84C20ADF84C20BDF84C202A806F
:1058D0002288ADF84C20BDF84C204FF45C43ADF865
:1058E0004C3001EA0222BDF84C30ADF84C30BDF826
:1058F0004C302B802388ADF84C30BDF84C301A4327
:105900008280B2F5004F08BF45F2105129D0A2F5B0
:10591000AA43103B26D0A122ADF84C20BDF84C2064
:10592000ADF84C20BDF84C202A802288ADF84C20E0
:10593000BDF84C202288ADF84C20BDF84C2001EA7F
:10594000022100E00EE02288ADF84C20BDF84C307A
:1059500019438180A1F5AE42613A08BF41F6631157
:1059600000D18180818865A008F0AEFD5B49ED2201
:10597000B1204FF039098B88A3F51341413914D078
:10598000A3F5A6414FF0040E10394FF0E20100F0EC
:10599000AD83A3F5AA40103803F0B083A3F5C85037
:1059A000633804F0CB8104F029BCCF21ADF84C1052
:1059B000BDF84C10ADF84C10BDF84C102980ADF876
:1059C0004C60BDF84C10ADF84C10BDF84C10218067
:1059D0004FF0C10CADF84CC0BDF84C10ADF84C10F8
:1059E000BDF84C1021803021ADF84C10BDF84C3082
:1059F000ADF84C30BDF84C302380ADF84C20BDF8EC
:105A00004C20ADF84C20BDF84C202A806422ADF823
:105A10004C20BDF84C20ADF84C20BDF84C20228025
:105A2000ADF84CA0BDF84C20ADF84C20BDF84C2092
:105A300022801222ADF84C20BDF84C20ADF84C204D
:105A4000BDF84C2022808122ADF84C20BDF84C20BE
:105A5000ADF84C20BDF84C202280E822ADF84C2057
:105A6000BDF84C20ADF84C20BDF84C202A80852292
:105A7000ADF84C20BDF84C20ADF84C20BDF84C20C2
:105A800022801023ADF84C30BDF84C20ADF84C20EE
:105A9000BDF84C2022807A22ADF84C20BDF84C2075
:105AA000ADF84C20BDF84C202280CB22ADF84C2024
:105AB000BDF84C20ADF84C20BDF84C202A80ADF844
:105AC0004C90BDF84C20ADF84C20BDF84C20228005
:105AD0002C22ADF84C20BDF84C2017E06C0A0220B7
